{
  "_format": "hh-sol-artifact-1",
  "contractName": "Nuki",
  "sourceName": "contracts/Nuki.sol",
  "abi": [
    {
      "anonymous": false,
      "inputs": [
        {
          "indexed": false,
          "internalType": "address",
          "name": "home",
          "type": "address"
        },
        {
          "indexed": false,
          "internalType": "address",
          "name": "visitor",
          "type": "address"
        }
      ],
      "name": "NewVisitor",
      "type": "event"
    },
    {
      "inputs": [
        {
          "internalType": "address",
          "name": "visitor",
          "type": "address"
        }
      ],
      "name": "addVisitor",
      "outputs": [],
      "stateMutability": "nonpayable",
      "type": "function"
    },
    {
      "inputs": [
        {
          "internalType": "address",
          "name": "home",
          "type": "address"
        }
      ],
      "name": "isSenderAllowedToEnter",
      "outputs": [
        {
          "internalType": "bool",
          "name": "",
          "type": "bool"
        }
      ],
      "stateMutability": "view",
      "type": "function"
    },
    {
      "inputs": [],
      "name": "name",
      "outputs": [
        {
          "internalType": "string",
          "name": "",
          "type": "string"
        }
      ],
      "stateMutability": "view",
      "type": "function"
    },
    {
      "inputs": [
        {
          "internalType": "address",
          "name": "visitor",
          "type": "address"
        }
      ],
      "name": "removeVisitor",
      "outputs": [],
      "stateMutability": "nonpayable",
      "type": "function"
    }
  ],
  "bytecode": "0x60806040526040518060400160405280600981526020017f4e756b6920686f6d650000000000000000000000000000000000000000000000815250600090816200004a9190620002f7565b506000600160006101000a81548161ffff021916908361ffff1602179055503480156200007657600080fd5b50620003de565b600081519050919050565b7f4e487b7100000000000000000000000000000000000000000000000000000000600052604160045260246000fd5b7f4e487b7100000000000000000000000000000000000000000000000000000000600052602260045260246000fd5b60006002820490506001821680620000ff57607f821691505b602082108103620001155762000114620000b7565b5b50919050565b60008190508160005260206000209050919050565b60006020601f8301049050919050565b600082821b905092915050565b6000600883026200017f7fffffffffffffffffffffffffffffffffffffffffffffffffffffffffffffffff8262000140565b6200018b868362000140565b95508019841693508086168417925050509392505050565b6000819050919050565b6000819050919050565b6000620001d8620001d2620001cc84620001a3565b620001ad565b620001a3565b9050919050565b6000819050919050565b620001f483620001b7565b6200020c6200020382620001df565b8484546200014d565b825550505050565b600090565b6200022362000214565b62000230818484620001e9565b505050565b5b8181101562000258576200024c60008262000219565b60018101905062000236565b5050565b601f821115620002a75762000271816200011b565b6200027c8462000130565b810160208510156200028c578190505b620002a46200029b8562000130565b83018262000235565b50505b505050565b600082821c905092915050565b6000620002cc60001984600802620002ac565b1980831691505092915050565b6000620002e78383620002b9565b9150826002028217905092915050565b62000302826200007d565b67ffffffffffffffff8111156200031e576200031d62000088565b5b6200032a8254620000e6565b620003378282856200025c565b600060209050601f8311600181146200036f57600084156200035a578287015190505b620003668582620002d9565b865550620003d6565b601f1984166200037f866200011b565b60005b82811015620003a95784890151825560018201915060208501945060208101905062000382565b86831015620003c95784890151620003c5601f891682620002b9565b8355505b6001600288020188555050505b505050505050565b61081180620003ee6000396000f3fe608060405234801561001057600080fd5b506004361061004c5760003560e01c806306fdde0314610051578063b588483e1461006f578063b992b3401461008b578063eaf9e2ad146100bb575b600080fd5b6100596100d7565b60405161006691906105ab565b60405180910390f35b61008960048036038101906100849190610630565b610165565b005b6100a560048036038101906100a09190610630565b610241565b6040516100b29190610678565b60405180910390f35b6100d560048036038101906100d09190610630565b610369565b005b600080546100e4906106c2565b80601f0160208091040260200160405190810160405280929190818152602001828054610110906106c2565b801561015d5780601f106101325761010080835404028352916020019161015d565b820191906000526020600020905b81548152906001019060200180831161014057829003601f168201915b505050505081565b600260003373ffffffffffffffffffffffffffffffffffffffff1673ffffffffffffffffffffffffffffffffffffffff168152602001908152602001600020819080600181540180825580915050600190039060005260206000200160009091909190916101000a81548173ffffffffffffffffffffffffffffffffffffffff021916908373ffffffffffffffffffffffffffffffffffffffff1602179055507ff0ac98a244bd87e94d4b1a9a449a965ee21c3640935851ec83edc12715ed30343382604051610236929190610702565b60405180910390a150565b600080600090505b600260008473ffffffffffffffffffffffffffffffffffffffff1673ffffffffffffffffffffffffffffffffffffffff1681526020019081526020016000208054905081101561035e573373ffffffffffffffffffffffffffffffffffffffff16600260008573ffffffffffffffffffffffffffffffffffffffff1673ffffffffffffffffffffffffffffffffffffffff16815260200190815260200160002082815481106102fb576102fa61072b565b5b9060005260206000200160009054906101000a900473ffffffffffffffffffffffffffffffffffffffff1673ffffffffffffffffffffffffffffffffffffffff160361034b576001915050610364565b808061035690610793565b915050610249565b50600090505b919050565b60005b600260003373ffffffffffffffffffffffffffffffffffffffff1673ffffffffffffffffffffffffffffffffffffffff16815260200190815260200160002080549050811015610517578173ffffffffffffffffffffffffffffffffffffffff16600260003373ffffffffffffffffffffffffffffffffffffffff1673ffffffffffffffffffffffffffffffffffffffff168152602001908152602001600020828154811061041e5761041d61072b565b5b9060005260206000200160009054906101000a900473ffffffffffffffffffffffffffffffffffffffff1673ffffffffffffffffffffffffffffffffffffffff1603610504576000600260003373ffffffffffffffffffffffffffffffffffffffff1673ffffffffffffffffffffffffffffffffffffffff16815260200190815260200160002082815481106104b7576104b661072b565b5b9060005260206000200160006101000a81548173ffffffffffffffffffffffffffffffffffffffff021916908373ffffffffffffffffffffffffffffffffffffffff160217905550610517565b808061050f90610793565b91505061036c565b5050565b600081519050919050565b600082825260208201905092915050565b60005b8381101561055557808201518184015260208101905061053a565b60008484015250505050565b6000601f19601f8301169050919050565b600061057d8261051b565b6105878185610526565b9350610597818560208601610537565b6105a081610561565b840191505092915050565b600060208201905081810360008301526105c58184610572565b905092915050565b600080fd5b600073ffffffffffffffffffffffffffffffffffffffff82169050919050565b60006105fd826105d2565b9050919050565b61060d816105f2565b811461061857600080fd5b50565b60008135905061062a81610604565b92915050565b600060208284031215610646576106456105cd565b5b60006106548482850161061b565b91505092915050565b60008115159050919050565b6106728161065d565b82525050565b600060208201905061068d6000830184610669565b92915050565b7f4e487b7100000000000000000000000000000000000000000000000000000000600052602260045260246000fd5b600060028204905060018216806106da57607f821691505b6020821081036106ed576106ec610693565b5b50919050565b6106fc816105f2565b82525050565b600060408201905061071760008301856106f3565b61072460208301846106f3565b9392505050565b7f4e487b7100000000000000000000000000000000000000000000000000000000600052603260045260246000fd5b7f4e487b7100000000000000000000000000000000000000000000000000000000600052601160045260246000fd5b6000819050919050565b600061079e82610789565b91507fffffffffffffffffffffffffffffffffffffffffffffffffffffffffffffffff82036107d0576107cf61075a565b5b60018201905091905056fea2646970667358221220fed2d65c9149e53ec3217cc1eef3ab36a688f5b1f89cb04d831162aeaa6725a264736f6c63430008130033",
  "linkReferences": {},
  "deployedLinkReferences": {}
}